{
  "contractName": "ConditionalRelease",
  "abi": [
    {
      "constant": true,
      "inputs": [
        {
          "internalType": "address",
          "name": "",
          "type": "address"
        }
      ],
      "name": "isLocking",
      "outputs": [
        {
          "internalType": "bool",
          "name": "",
          "type": "bool"
        }
      ],
      "payable": false,
      "stateMutability": "view",
      "type": "function"
    },
    {
      "constant": true,
      "inputs": [
        {
          "internalType": "address",
          "name": "",
          "type": "address"
        }
      ],
      "name": "lockedBalance",
      "outputs": [
        {
          "internalType": "uint256",
          "name": "",
          "type": "uint256"
        }
      ],
      "payable": false,
      "stateMutability": "view",
      "type": "function"
    },
    {
      "constant": true,
      "inputs": [],
      "name": "name",
      "outputs": [
        {
          "internalType": "string",
          "name": "",
          "type": "string"
        }
      ],
      "payable": false,
      "stateMutability": "view",
      "type": "function"
    },
    {
      "constant": false,
      "inputs": [],
      "name": "lockEth",
      "outputs": [],
      "payable": true,
      "stateMutability": "payable",
      "type": "function"
    },
    {
      "constant": false,
      "inputs": [],
      "name": "withdrawEth",
      "outputs": [],
      "payable": false,
      "stateMutability": "nonpayable",
      "type": "function"
    }
  ],
  "bytecode": "0x60806040526040518060400160405280601c81526020017f436f6e646974696f6e616c2052656c6561736520436f6e7472616374000000008152506000908051906020019061004f929190610062565b5034801561005c57600080fd5b50610107565b828054600181600116156101000203166002900490600052602060002090601f016020900481019282601f106100a357805160ff19168380011785556100d1565b828001600101855582156100d1579182015b828111156100d05782518255916020019190600101906100b5565b5b5090506100de91906100e2565b5090565b61010491905b808211156101005760008160009055506001016100e8565b5090565b90565b610609806101166000396000f3fe60806040526004361061004a5760003560e01c806306fdde031461004f5780639ae697bf146100df578063a0ef91df14610144578063d12c33b71461015b578063d7611cc1146101c4575b600080fd5b34801561005b57600080fd5b506100646101ce565b6040518080602001828103825283818151815260200191508051906020019080838360005b838110156100a4578082015181840152602081019050610089565b50505050905090810190601f1680156100d15780820380516001836020036101000a031916815260200191505b509250505060405180910390f35b3480156100eb57600080fd5b5061012e6004803603602081101561010257600080fd5b81019080803573ffffffffffffffffffffffffffffffffffffffff16906020019092919050505061026c565b6040518082815260200191505060405180910390f35b34801561015057600080fd5b50610159610284565b005b34801561016757600080fd5b506101aa6004803603602081101561017e57600080fd5b81019080803573ffffffffffffffffffffffffffffffffffffffff169060200190929190505050610441565b604051808215151515815260200191505060405180910390f35b6101cc610461565b005b60008054600181600116156101000203166002900480601f0160208091040260200160405190810160405280929190818152602001828054600181600116156101000203166002900480156102645780601f1061023957610100808354040283529160200191610264565b820191906000526020600020905b81548152906001019060200180831161024757829003601f168201915b505050505081565b60016020528060005260406000206000915090505481565b6000600160003373ffffffffffffffffffffffffffffffffffffffff1673ffffffffffffffffffffffffffffffffffffffff168152602001908152602001600020541161031c576040517f08c379a000000000000000000000000000000000000000000000000000000000815260040180806020018281038252602b8152602001806105aa602b913960400191505060405180910390fd5b3373ffffffffffffffffffffffffffffffffffffffff166108fc600160003373ffffffffffffffffffffffffffffffffffffffff1673ffffffffffffffffffffffffffffffffffffffff168152602001908152602001600020549081150290604051600060405180830381858888f193505050501580156103a1573d6000803e3d6000fd5b506000600160003373ffffffffffffffffffffffffffffffffffffffff1673ffffffffffffffffffffffffffffffffffffffff168152602001908152602001600020819055506000600260003373ffffffffffffffffffffffffffffffffffffffff1673ffffffffffffffffffffffffffffffffffffffff16815260200190815260200160002060006101000a81548160ff021916908315150217905550565b60026020528060005260406000206000915054906101000a900460ff1681565b6103e834101561047057600080fd5b34600160003373ffffffffffffffffffffffffffffffffffffffff1673ffffffffffffffffffffffffffffffffffffffff1681526020019081526020016000205401600160003373ffffffffffffffffffffffffffffffffffffffff1673ffffffffffffffffffffffffffffffffffffffff1681526020019081526020016000208190555060001515600260003373ffffffffffffffffffffffffffffffffffffffff1673ffffffffffffffffffffffffffffffffffffffff16815260200190815260200160002060009054906101000a900460ff16151514156105a7576001600260003373ffffffffffffffffffffffffffffffffffffffff1673ffffffffffffffffffffffffffffffffffffffff16815260200190815260200160002060006101000a81548160ff0219169083151502179055505b56fe77697468647261776572206d7573742063757272656e746c792068617665206c6f636b65642066756e6473a265627a7a72315820f6452fca0db7fa8dda4989108b774e3d126bdc32d64c0c9e94bec2ab18c63c4464736f6c63430005100032",
  "source": "// \"SPDX-License-Identifier: <SPDX-License>\"\npragma solidity ^0.5.0;\n\ncontract ConditionalRelease {\n    string public name = 'Conditional Release Contract';\n\n    mapping(address => uint) public lockedBalance;\n    mapping(address => bool) public isLocking;\n\n    //lock tokens (deposit)\n    function lockEth() public payable {\n        if(msg.value < 1000) {\n            revert();\n        }\n        else {\n        //update locked balance\n        lockedBalance[msg.sender] = lockedBalance[msg.sender] + msg.value;\n        //if hasLockded = false, add msg.sender's address to owners array\n        \n        //update isLocking\n        if(isLocking[msg.sender] == false) {\n            isLocking[msg.sender] = true;\n        }\n\n    }\n}\n\n    //withdraw tokens on condition....here is where we will use our VRF\n    function withdrawEth() public {\n        //require the withdrawer to have a lockingBalance > zero\n        require(lockedBalance[msg.sender] > 0, 'withdrawer must currently have locked funds');\n\n        //transfer the ETH back to the sender, and subtract the amount withrawn from the sender's balance\n        msg.sender.transfer(lockedBalance[msg.sender]);\n\n        lockedBalance[msg.sender] = 0;\n\n        isLocking[msg.sender] = false;\n       \n    }\n    \n}",
  "sourcePath": "/Users/saflamini/dapps/conditional-release/conditional-release/src/contracts/ConditionalRelease.sol",
  "compiler": {
    "name": "solc",
    "version": "0.5.16+commit.9c3226ce.Emscripten.clang"
  },
  "schemaVersion": "3.3.4",
  "updatedAt": "2021-04-20T01:47:23.545Z",
  "networkType": "ethereum",
  "devdoc": {
    "methods": {}
  },
  "userdoc": {
    "methods": {}
  }
}